{
  "contractName": "FutureETH",
  "abi": [
    {
      "constant": true,
      "inputs": [
        {
          "name": "",
          "type": "address"
        }
      ],
      "name": "escrow",
      "outputs": [
        {
          "name": "",
          "type": "uint256"
        }
      ],
      "payable": false,
      "stateMutability": "view",
      "type": "function"
    },
    {
      "inputs": [
        {
          "name": "futurePriceToSet",
          "type": "uint256"
        },
        {
          "name": "secondsToWait",
          "type": "uint256"
        }
      ],
      "payable": true,
      "stateMutability": "payable",
      "type": "constructor"
    },
    {
      "payable": true,
      "stateMutability": "payable",
      "type": "fallback"
    },
    {
      "anonymous": false,
      "inputs": [
        {
          "indexed": false,
          "name": "sender",
          "type": "address"
        },
        {
          "indexed": false,
          "name": "_value",
          "type": "uint256"
        }
      ],
      "name": "FundsReceived",
      "type": "event"
    },
    {
      "anonymous": false,
      "inputs": [
        {
          "indexed": false,
          "name": "_from",
          "type": "address"
        },
        {
          "indexed": false,
          "name": "_to",
          "type": "address"
        },
        {
          "indexed": false,
          "name": "_value",
          "type": "uint256"
        }
      ],
      "name": "Transfer",
      "type": "event"
    },
    {
      "anonymous": false,
      "inputs": [],
      "name": "FutureStartedEvent",
      "type": "event"
    },
    {
      "anonymous": false,
      "inputs": [
        {
          "indexed": false,
          "name": "expectedPrice",
          "type": "uint256"
        },
        {
          "indexed": false,
          "name": "actualPrice",
          "type": "uint256"
        }
      ],
      "name": "FutureCompletedEvent",
      "type": "event"
    },
    {
      "anonymous": false,
      "inputs": [
        {
          "indexed": false,
          "name": "valueLost",
          "type": "uint256"
        }
      ],
      "name": "Liquidation",
      "type": "event"
    },
    {
      "anonymous": false,
      "inputs": [
        {
          "indexed": false,
          "name": "owner",
          "type": "address"
        },
        {
          "indexed": false,
          "name": "ownerAmount",
          "type": "uint256"
        },
        {
          "indexed": false,
          "name": "buyer",
          "type": "address"
        },
        {
          "indexed": false,
          "name": "buyerAmount",
          "type": "uint256"
        }
      ],
      "name": "RefundEth",
      "type": "event"
    },
    {
      "constant": false,
      "inputs": [],
      "name": "receiveFunds",
      "outputs": [
        {
          "name": "newBalance",
          "type": "uint256"
        }
      ],
      "payable": true,
      "stateMutability": "payable",
      "type": "function"
    },
    {
      "constant": false,
      "inputs": [
        {
          "name": "actualPrice",
          "type": "uint256"
        }
      ],
      "name": "processFuture",
      "outputs": [],
      "payable": false,
      "stateMutability": "nonpayable",
      "type": "function"
    },
    {
      "constant": false,
      "inputs": [],
      "name": "refund",
      "outputs": [],
      "payable": false,
      "stateMutability": "nonpayable",
      "type": "function"
    },
    {
      "constant": true,
      "inputs": [],
      "name": "getSecondsLeft",
      "outputs": [
        {
          "name": "",
          "type": "uint256"
        }
      ],
      "payable": false,
      "stateMutability": "view",
      "type": "function"
    },
    {
      "constant": true,
      "inputs": [],
      "name": "getSellerBalance",
      "outputs": [
        {
          "name": "",
          "type": "uint256"
        }
      ],
      "payable": false,
      "stateMutability": "view",
      "type": "function"
    },
    {
      "constant": true,
      "inputs": [],
      "name": "getBuyerBalance",
      "outputs": [
        {
          "name": "",
          "type": "uint256"
        }
      ],
      "payable": false,
      "stateMutability": "view",
      "type": "function"
    },
    {
      "constant": true,
      "inputs": [],
      "name": "getFutureAmount",
      "outputs": [
        {
          "name": "",
          "type": "uint256"
        }
      ],
      "payable": false,
      "stateMutability": "view",
      "type": "function"
    },
    {
      "constant": true,
      "inputs": [],
      "name": "getFuturesPrice",
      "outputs": [
        {
          "name": "",
          "type": "uint256"
        }
      ],
      "payable": false,
      "stateMutability": "view",
      "type": "function"
    },
    {
      "constant": true,
      "inputs": [],
      "name": "getFuturesSeconds",
      "outputs": [
        {
          "name": "",
          "type": "uint256"
        }
      ],
      "payable": false,
      "stateMutability": "view",
      "type": "function"
    },
    {
      "constant": true,
      "inputs": [],
      "name": "getFutureStarted",
      "outputs": [
        {
          "name": "",
          "type": "bool"
        }
      ],
      "payable": false,
      "stateMutability": "view",
      "type": "function"
    }
  ],
  "bytecode": "0x60806040526040516040806119d5833981018060405281019080805190602001909291908051906020019092919050505033600360006101000a81548173ffffffffffffffffffffffffffffffffffffffff021916908373ffffffffffffffffffffffffffffffffffffffff16021790555034600560003373ffffffffffffffffffffffffffffffffffffffff1673ffffffffffffffffffffffffffffffffffffffff1681526020019081526020016000208190555081600081905550806001819055505050611901806100d46000396000f3006080604052600436106100ad576000357c0100000000000000000000000000000000000000000000000000000000900463ffffffff16806206503a146101955780625c33e1146101c05780632cd342d2146101de5780632f1c1ac81461020b57806357d3c7c314610236578063590e1ae31461028d5780637a9dae96146102a457806383f525ea146102cf578063cdf3a667146102fa578063d997886514610325578063ff20bffe14610350575b3373ffffffffffffffffffffffffffffffffffffffff166108fc349081150290604051600060405180830381858888f193505050501580156100f3573d6000803e3d6000fd5b507fddf252ad1be2c89b69c2b068fc378daa952ba7f163c4a11628f55a4df523b3ef303334604051808473ffffffffffffffffffffffffffffffffffffffff1673ffffffffffffffffffffffffffffffffffffffff1681526020018373ffffffffffffffffffffffffffffffffffffffff1673ffffffffffffffffffffffffffffffffffffffff168152602001828152602001935050505060405180910390a1005b3480156101a157600080fd5b506101aa61037f565b6040518082815260200191505060405180910390f35b6101c86103a8565b6040518082815260200191505060405180910390f35b3480156101ea57600080fd5b5061020960048036038101908080359060200190929190505050610838565b005b34801561021757600080fd5b506102206110af565b6040518082815260200191505060405180910390f35b34801561024257600080fd5b50610277600480360381019080803573ffffffffffffffffffffffffffffffffffffffff1690602001909291905050506110b9565b6040518082815260200191505060405180910390f35b34801561029957600080fd5b506102a26110d1565b005b3480156102b057600080fd5b506102b961177a565b6040518082815260200191505060405180910390f35b3480156102db57600080fd5b506102e46117e3565b6040518082815260200191505060405180910390f35b34801561030657600080fd5b5061030f6117ec565b6040518082815260200191505060405180910390f35b34801561033157600080fd5b5061033a611855565b6040518082815260200191505060405180910390f35b34801561035c57600080fd5b506103656118be565b604051808215151515815260200191505060405180910390f35b6000600154600254420310151561039957600090506103a5565b42600154600254010390505b90565b6000600460149054906101000a900460ff161515156103c657600080fd5b7f8e47b87b0ef542cdfa1659c551d88bad38aa7f452d2bbb349ab7530dfec8be8f3334604051808373ffffffffffffffffffffffffffffffffffffffff1673ffffffffffffffffffffffffffffffffffffffff1681526020018281526020019250505060405180910390a1600360009054906101000a900473ffffffffffffffffffffffffffffffffffffffff1673ffffffffffffffffffffffffffffffffffffffff163373ffffffffffffffffffffffffffffffffffffffff1614156104fb573460056000600360009054906101000a900473ffffffffffffffffffffffffffffffffffffffff1673ffffffffffffffffffffffffffffffffffffffff1673ffffffffffffffffffffffffffffffffffffffff168152602001908152602001600020600082825401925050819055506106d8565b6000600460009054906101000a900473ffffffffffffffffffffffffffffffffffffffff1673ffffffffffffffffffffffffffffffffffffffff1614156105e85733600460006101000a81548173ffffffffffffffffffffffffffffffffffffffff021916908373ffffffffffffffffffffffffffffffffffffffff1602179055503460056000600460009054906101000a900473ffffffffffffffffffffffffffffffffffffffff1673ffffffffffffffffffffffffffffffffffffffff1673ffffffffffffffffffffffffffffffffffffffff168152602001908152602001600020819055506106d7565b3373ffffffffffffffffffffffffffffffffffffffff166108fc349081150290604051600060405180830381858888f1935050505015801561062e573d6000803e3d6000fd5b507fddf252ad1be2c89b69c2b068fc378daa952ba7f163c4a11628f55a4df523b3ef303334604051808473ffffffffffffffffffffffffffffffffffffffff1673ffffffffffffffffffffffffffffffffffffffff1681526020018373ffffffffffffffffffffffffffffffffffffffff1673ffffffffffffffffffffffffffffffffffffffff168152602001828152602001935050505060405180910390a160009050610835565b5b60056000600360009054906101000a900473ffffffffffffffffffffffffffffffffffffffff1673ffffffffffffffffffffffffffffffffffffffff1673ffffffffffffffffffffffffffffffffffffffff1681526020019081526020016000205460056000600460009054906101000a900473ffffffffffffffffffffffffffffffffffffffff1673ffffffffffffffffffffffffffffffffffffffff1673ffffffffffffffffffffffffffffffffffffffff168152602001908152602001600020541015156107f2576001600460146101000a81548160ff021916908315150217905550426002819055507fd17b72adcfcf924f4a1bed3bee8fb150eeaaa86d5160165c0ce6af7c04fa123a60405160405180910390a15b600560003373ffffffffffffffffffffffffffffffffffffffff1673ffffffffffffffffffffffffffffffffffffffff1681526020019081526020016000205490505b90565b600060056000600360009054906101000a900473ffffffffffffffffffffffffffffffffffffffff1673ffffffffffffffffffffffffffffffffffffffff1673ffffffffffffffffffffffffffffffffffffffff1681526020019081526020016000205460056000600460009054906101000a900473ffffffffffffffffffffffffffffffffffffffff1673ffffffffffffffffffffffffffffffffffffffff1673ffffffffffffffffffffffffffffffffffffffff168152602001908152602001600020541015151561090b57600080fd5b60015460025442031015151561092057600080fd5b7fa91efe1612f13140729674cd0af79a3e1c7a054cf8ca2f75d3e1a7f775a4839060005483604051808381526020018281526020019250505060405180910390a16000905060005460028302111515610a21577fb2d60c1853f534186f98500209005bfe1303c83a5b211d7be5b93d61be1ca99e670de0b6b3a764000060056000600360009054906101000a900473ffffffffffffffffffffffffffffffffffffffff1673ffffffffffffffffffffffffffffffffffffffff1673ffffffffffffffffffffffffffffffffffffffff168152602001908152602001600020548402811515610a0a57fe5b046040518082815260200191505060405180910390a15b600054821115610d665781600054830360056000600360009054906101000a900473ffffffffffffffffffffffffffffffffffffffff1673ffffffffffffffffffffffffffffffffffffffff1673ffffffffffffffffffffffffffffffffffffffff1681526020019081526020016000205402811515610a9d57fe5b0490508060056000600360009054906101000a900473ffffffffffffffffffffffffffffffffffffffff1673ffffffffffffffffffffffffffffffffffffffff1673ffffffffffffffffffffffffffffffffffffffff168152602001908152602001600020600082825401925050819055508060056000600460009054906101000a900473ffffffffffffffffffffffffffffffffffffffff1673ffffffffffffffffffffffffffffffffffffffff1673ffffffffffffffffffffffffffffffffffffffff16815260200190815260200160002060008282540392505081905550600460009054906101000a900473ffffffffffffffffffffffffffffffffffffffff1673ffffffffffffffffffffffffffffffffffffffff166108fc60056000600460009054906101000a900473ffffffffffffffffffffffffffffffffffffffff1673ffffffffffffffffffffffffffffffffffffffff1673ffffffffffffffffffffffffffffffffffffffff168152602001908152602001600020549081150290604051600060405180830381858888f19350505050158015610c47573d6000803e3d6000fd5b507fddf252ad1be2c89b69c2b068fc378daa952ba7f163c4a11628f55a4df523b3ef600460009054906101000a900473ffffffffffffffffffffffffffffffffffffffff16600360009054906101000a900473ffffffffffffffffffffffffffffffffffffffff1683604051808473ffffffffffffffffffffffffffffffffffffffff1673ffffffffffffffffffffffffffffffffffffffff1681526020018373ffffffffffffffffffffffffffffffffffffffff1673ffffffffffffffffffffffffffffffffffffffff168152602001828152602001935050505060405180910390a1600360009054906101000a900473ffffffffffffffffffffffffffffffffffffffff1673ffffffffffffffffffffffffffffffffffffffff16ff5b6000548210156110ab5781826000540360056000600360009054906101000a900473ffffffffffffffffffffffffffffffffffffffff1673ffffffffffffffffffffffffffffffffffffffff1673ffffffffffffffffffffffffffffffffffffffff1681526020019081526020016000205402811515610de257fe5b0490508060056000600360009054906101000a900473ffffffffffffffffffffffffffffffffffffffff1673ffffffffffffffffffffffffffffffffffffffff1673ffffffffffffffffffffffffffffffffffffffff168152602001908152602001600020600082825403925050819055508060056000600460009054906101000a900473ffffffffffffffffffffffffffffffffffffffff1673ffffffffffffffffffffffffffffffffffffffff1673ffffffffffffffffffffffffffffffffffffffff16815260200190815260200160002060008282540192505081905550600460009054906101000a900473ffffffffffffffffffffffffffffffffffffffff1673ffffffffffffffffffffffffffffffffffffffff166108fc60056000600460009054906101000a900473ffffffffffffffffffffffffffffffffffffffff1673ffffffffffffffffffffffffffffffffffffffff1673ffffffffffffffffffffffffffffffffffffffff168152602001908152602001600020549081150290604051600060405180830381858888f19350505050158015610f8c573d6000803e3d6000fd5b507fddf252ad1be2c89b69c2b068fc378daa952ba7f163c4a11628f55a4df523b3ef600360009054906101000a900473ffffffffffffffffffffffffffffffffffffffff16600460009054906101000a900473ffffffffffffffffffffffffffffffffffffffff1683604051808473ffffffffffffffffffffffffffffffffffffffff1673ffffffffffffffffffffffffffffffffffffffff1681526020018373ffffffffffffffffffffffffffffffffffffffff1673ffffffffffffffffffffffffffffffffffffffff168152602001828152602001935050505060405180910390a1600360009054906101000a900473ffffffffffffffffffffffffffffffffffffffff1673ffffffffffffffffffffffffffffffffffffffff16ff5b5050565b6000600154905090565b60056020528060005260406000206000915090505481565b600360009054906101000a900473ffffffffffffffffffffffffffffffffffffffff1673ffffffffffffffffffffffffffffffffffffffff163373ffffffffffffffffffffffffffffffffffffffff1614151561112d57600080fd5b600460149054906101000a900460ff1615151561114957600080fd5b600060056000600460009054906101000a900473ffffffffffffffffffffffffffffffffffffffff1673ffffffffffffffffffffffffffffffffffffffff1673ffffffffffffffffffffffffffffffffffffffff16815260200190815260200160002054141561155157600460009054906101000a900473ffffffffffffffffffffffffffffffffffffffff1673ffffffffffffffffffffffffffffffffffffffff166108fc60056000600460009054906101000a900473ffffffffffffffffffffffffffffffffffffffff1673ffffffffffffffffffffffffffffffffffffffff1673ffffffffffffffffffffffffffffffffffffffff168152602001908152602001600020549081150290604051600060405180830381858888f1935050505015801561127c573d6000803e3d6000fd5b507fddf252ad1be2c89b69c2b068fc378daa952ba7f163c4a11628f55a4df523b3ef30600460009054906101000a900473ffffffffffffffffffffffffffffffffffffffff1660056000600460009054906101000a900473ffffffffffffffffffffffffffffffffffffffff1673ffffffffffffffffffffffffffffffffffffffff1673ffffffffffffffffffffffffffffffffffffffff16815260200190815260200160002054604051808473ffffffffffffffffffffffffffffffffffffffff1673ffffffffffffffffffffffffffffffffffffffff1681526020018373ffffffffffffffffffffffffffffffffffffffff1673ffffffffffffffffffffffffffffffffffffffff168152602001828152602001935050505060405180910390a17f3265d88026dac335490595911069fe23a2d1bf4c8c13062887bf83d88d4b5707600360009054906101000a900473ffffffffffffffffffffffffffffffffffffffff1660056000600360009054906101000a900473ffffffffffffffffffffffffffffffffffffffff1673ffffffffffffffffffffffffffffffffffffffff1673ffffffffffffffffffffffffffffffffffffffff16815260200190815260200160002054600460009054906101000a900473ffffffffffffffffffffffffffffffffffffffff1660056000600460009054906101000a900473ffffffffffffffffffffffffffffffffffffffff1673ffffffffffffffffffffffffffffffffffffffff1673ffffffffffffffffffffffffffffffffffffffff16815260200190815260200160002054604051808573ffffffffffffffffffffffffffffffffffffffff1673ffffffffffffffffffffffffffffffffffffffff1681526020018481526020018373ffffffffffffffffffffffffffffffffffffffff1673ffffffffffffffffffffffffffffffffffffffff16815260200182815260200194505050505060405180910390a1611667565b7f3265d88026dac335490595911069fe23a2d1bf4c8c13062887bf83d88d4b5707600360009054906101000a900473ffffffffffffffffffffffffffffffffffffffff1660056000600360009054906101000a900473ffffffffffffffffffffffffffffffffffffffff1673ffffffffffffffffffffffffffffffffffffffff1673ffffffffffffffffffffffffffffffffffffffff16815260200190815260200160002054600080604051808573ffffffffffffffffffffffffffffffffffffffff1673ffffffffffffffffffffffffffffffffffffffff1681526020018481526020018373ffffffffffffffffffffffffffffffffffffffff16815260200182815260200194505050505060405180910390a15b7fddf252ad1be2c89b69c2b068fc378daa952ba7f163c4a11628f55a4df523b3ef30600360009054906101000a900473ffffffffffffffffffffffffffffffffffffffff163073ffffffffffffffffffffffffffffffffffffffff1631604051808473ffffffffffffffffffffffffffffffffffffffff1673ffffffffffffffffffffffffffffffffffffffff1681526020018373ffffffffffffffffffffffffffffffffffffffff1673ffffffffffffffffffffffffffffffffffffffff168152602001828152602001935050505060405180910390a1600360009054906101000a900473ffffffffffffffffffffffffffffffffffffffff1673ffffffffffffffffffffffffffffffffffffffff16ff5b600060056000600360009054906101000a900473ffffffffffffffffffffffffffffffffffffffff1673ffffffffffffffffffffffffffffffffffffffff1673ffffffffffffffffffffffffffffffffffffffff16815260200190815260200160002054905090565b60008054905090565b600060056000600460009054906101000a900473ffffffffffffffffffffffffffffffffffffffff1673ffffffffffffffffffffffffffffffffffffffff1673ffffffffffffffffffffffffffffffffffffffff16815260200190815260200160002054905090565b600060056000600460009054906101000a900473ffffffffffffffffffffffffffffffffffffffff1673ffffffffffffffffffffffffffffffffffffffff1673ffffffffffffffffffffffffffffffffffffffff16815260200190815260200160002054905090565b6000600460149054906101000a900460ff169050905600a165627a7a72305820721659b30b4c773b3917e2d6e6a05a262435cc1c60e063c94469c5b0b133d2210029",
  "source": "pragma solidity ^0.4.23;\n\n\ncontract FutureETH {\n    uint256 constant WEI = 1000000000000000000;\n    uint256 futurePrice;\n    uint256 futureSeconds;\n    uint256 startTime;\n    address owner;\n    address buyer;\n    bool futureStarted;\n\n    mapping (address => uint) public escrow;\n\n    event FundsReceived(address sender, uint256 _value); // funds received from the second person\n    event Transfer(address _from, address _to, uint256 _value);\n    event FutureStartedEvent(); // when the futuresContract is started\n    event FutureCompletedEvent(uint256 expectedPrice, uint256 actualPrice); // when the futures contract is completed\n    event Liquidation(uint256 valueLost); // uh oh.\n    event RefundEth(address owner, uint ownerAmount, address buyer, uint buyerAmount); // canceled futures contract\n\n    modifier refundable {\n        require(!futureStarted);\n        _;\n    }\n\n    modifier fundingCompleted {\n        require(escrow[buyer] >= escrow[owner]);\n        _;\n    }\n\n    modifier onlyOwner {\n        require(msg.sender == owner);\n        _;\n    }\n\n    modifier enoughTimePassed {\n        require(now-startTime >= futureSeconds);\n        _;\n    }\n\n    constructor(uint256 futurePriceToSet, uint256 secondsToWait) public payable {\n        owner = msg.sender;\n        escrow[msg.sender] = msg.value;\n        futurePrice = futurePriceToSet;\n        futureSeconds = secondsToWait;\n    }\n\n    // fallback function\n    function() public payable {\n        msg.sender.transfer(msg.value);\n        emit Transfer(this, msg.sender, msg.value);\n    }\n\n    function receiveFunds() public payable returns (uint newBalance) {\n        require(!futureStarted);\n        emit FundsReceived(msg.sender, msg.value);\n        if (msg.sender == owner) {\n            escrow[owner] += msg.value;\n        } else if (buyer == 0) {\n            buyer = msg.sender;\n            escrow[buyer] = msg.value;\n        } else {\n            // refund the person who sent the ether and is not a participant.\n            msg.sender.transfer(msg.value);\n            emit Transfer(this, msg.sender, msg.value);\n            return 0;\n        }\n\n        if (escrow[buyer] >= escrow[owner]) {\n            futureStarted = true;\n            startTime = now;\n            emit FutureStartedEvent();\n        }\n\n        return escrow[msg.sender];\n    }\n\n    function processFuture(uint actualPrice) public fundingCompleted enoughTimePassed {\n        emit FutureCompletedEvent(futurePrice, actualPrice);\n        // Msg.value(newPrice-price) / newPrice = quantityOwed\n        uint amountToSend = 0;\n\n        // R - E - K - T\n        if ((actualPrice*2) <= futurePrice) {\n            emit Liquidation(actualPrice*escrow[owner] / 1000000000000000000);\n        }\n\n        if (actualPrice > futurePrice) {\n            // price went higher than predicted, buyer makes the difference\n            amountToSend = (escrow[owner] * (actualPrice-futurePrice)) / actualPrice;\n            escrow[owner] += amountToSend;\n            escrow[buyer] -= amountToSend;\n            buyer.transfer(escrow[buyer]);\n            emit Transfer(buyer, owner, amountToSend);\n            selfdestruct(owner);\n        }\n        if (actualPrice < futurePrice) {\n            // price went lower than predicted, seller makes the difference\n            // solidity can't handle negatives so we reverse the foruma's subtraction\n            amountToSend = (escrow[owner] * (futurePrice-actualPrice)) / actualPrice;\n            escrow[owner] -= amountToSend;\n            escrow[buyer] += amountToSend;\n            buyer.transfer(escrow[buyer]);\n            emit Transfer(owner, buyer, amountToSend);\n            selfdestruct(owner);\n        }\n    }\n\n    function refund() public onlyOwner refundable {\n        if (escrow[buyer] == 0) {\n            buyer.transfer(escrow[buyer]);\n            emit Transfer(this, buyer, escrow[buyer]);\n            emit RefundEth(owner, escrow[owner], buyer, escrow[buyer]);\n        } else {\n            emit RefundEth(owner, escrow[owner], 0x0, 0);\n        }\n\n        emit Transfer(this, owner, address(this).balance);\n        selfdestruct(owner);\n    }\n\n    function getSecondsLeft() public view returns (uint) {\n        if (now-startTime >= futureSeconds) {\n            return 0;\n        } else {\n            return startTime+(futureSeconds)-now;\n        }\n    }\n\n    function getSellerBalance() public view returns(uint) {\n        return escrow[owner];\n    }\n\n    function getBuyerBalance() public view returns (uint) {\n        return escrow[buyer];\n    }\n\n    function getFutureAmount() public view returns (uint) {\n        return escrow[buyer];\n    }\n\n    function getFuturesPrice() public view returns (uint) {\n        return futurePrice;\n    }\n\n    function getFuturesSeconds() public view returns (uint) {\n        return futureSeconds;\n    }\n\n    function getFutureStarted() public view returns (bool) {\n        return futureStarted;\n    }\n}\n",
  "sourcePath": "/Users/brent/Documents/eth-programming/helloWorld/contracts/FutureETH.sol",
  "compiler": {
    "name": "solc",
    "version": "0.4.23+commit.124ca40d.Emscripten.clang"
  },
  "schemaVersion": "2.0.0",
  "updatedAt": "2018-04-29T08:29:21.333Z"
}