{
  "contractName": "FutureETH",
  "abi": [
    {
      "constant": true,
      "inputs": [
        {
          "name": "",
          "type": "address"
        }
      ],
      "name": "escrow",
      "outputs": [
        {
          "name": "",
          "type": "uint256"
        }
      ],
      "payable": false,
      "stateMutability": "view",
      "type": "function"
    },
    {
      "inputs": [
        {
          "name": "futurePriceToSet",
          "type": "uint256"
        },
        {
          "name": "secondsToWait",
          "type": "uint256"
        }
      ],
      "payable": true,
      "stateMutability": "payable",
      "type": "constructor"
    },
    {
      "payable": true,
      "stateMutability": "payable",
      "type": "fallback"
    },
    {
      "anonymous": false,
      "inputs": [
        {
          "indexed": false,
          "name": "sender",
          "type": "address"
        },
        {
          "indexed": false,
          "name": "_value",
          "type": "uint256"
        }
      ],
      "name": "FundsReceived",
      "type": "event"
    },
    {
      "anonymous": false,
      "inputs": [
        {
          "indexed": true,
          "name": "_from",
          "type": "address"
        },
        {
          "indexed": true,
          "name": "_to",
          "type": "address"
        },
        {
          "indexed": false,
          "name": "_value",
          "type": "uint256"
        }
      ],
      "name": "Transfer",
      "type": "event"
    },
    {
      "anonymous": false,
      "inputs": [],
      "name": "FutureStartedEvent",
      "type": "event"
    },
    {
      "anonymous": false,
      "inputs": [
        {
          "indexed": false,
          "name": "expectedPrice",
          "type": "uint256"
        },
        {
          "indexed": false,
          "name": "actualPrice",
          "type": "uint256"
        }
      ],
      "name": "FutureCompletedEvent",
      "type": "event"
    },
    {
      "anonymous": false,
      "inputs": [
        {
          "indexed": false,
          "name": "valueLost",
          "type": "uint256"
        }
      ],
      "name": "Liquidation",
      "type": "event"
    },
    {
      "anonymous": false,
      "inputs": [
        {
          "indexed": false,
          "name": "owner",
          "type": "address"
        },
        {
          "indexed": false,
          "name": "ownerAmount",
          "type": "uint256"
        },
        {
          "indexed": false,
          "name": "buyer",
          "type": "address"
        },
        {
          "indexed": false,
          "name": "buyerAmount",
          "type": "uint256"
        }
      ],
      "name": "RefundEth",
      "type": "event"
    },
    {
      "constant": false,
      "inputs": [],
      "name": "receiveFunds",
      "outputs": [
        {
          "name": "newBalance",
          "type": "uint256"
        }
      ],
      "payable": true,
      "stateMutability": "payable",
      "type": "function"
    },
    {
      "constant": false,
      "inputs": [
        {
          "name": "actualPrice",
          "type": "uint256"
        }
      ],
      "name": "processFuture",
      "outputs": [],
      "payable": false,
      "stateMutability": "nonpayable",
      "type": "function"
    },
    {
      "constant": false,
      "inputs": [],
      "name": "refund",
      "outputs": [],
      "payable": false,
      "stateMutability": "nonpayable",
      "type": "function"
    },
    {
      "constant": true,
      "inputs": [],
      "name": "getSecondsLeft",
      "outputs": [
        {
          "name": "",
          "type": "uint256"
        }
      ],
      "payable": false,
      "stateMutability": "view",
      "type": "function"
    },
    {
      "constant": true,
      "inputs": [],
      "name": "getSellerBalance",
      "outputs": [
        {
          "name": "",
          "type": "uint256"
        }
      ],
      "payable": false,
      "stateMutability": "view",
      "type": "function"
    },
    {
      "constant": true,
      "inputs": [],
      "name": "getBuyerBalance",
      "outputs": [
        {
          "name": "",
          "type": "uint256"
        }
      ],
      "payable": false,
      "stateMutability": "view",
      "type": "function"
    },
    {
      "constant": true,
      "inputs": [],
      "name": "getFutureAmount",
      "outputs": [
        {
          "name": "",
          "type": "uint256"
        }
      ],
      "payable": false,
      "stateMutability": "view",
      "type": "function"
    },
    {
      "constant": true,
      "inputs": [],
      "name": "getFuturesPrice",
      "outputs": [
        {
          "name": "",
          "type": "uint256"
        }
      ],
      "payable": false,
      "stateMutability": "view",
      "type": "function"
    },
    {
      "constant": true,
      "inputs": [],
      "name": "getFuturesSeconds",
      "outputs": [
        {
          "name": "",
          "type": "uint256"
        }
      ],
      "payable": false,
      "stateMutability": "view",
      "type": "function"
    },
    {
      "constant": true,
      "inputs": [],
      "name": "getFutureStarted",
      "outputs": [
        {
          "name": "",
          "type": "bool"
        }
      ],
      "payable": false,
      "stateMutability": "view",
      "type": "function"
    }
  ],
  "bytecode": "0x6080604052604051604080611890833981018060405281019080805190602001909291908051906020019092919050505033600360006101000a81548173ffffffffffffffffffffffffffffffffffffffff021916908373ffffffffffffffffffffffffffffffffffffffff16021790555034600560003373ffffffffffffffffffffffffffffffffffffffff1673ffffffffffffffffffffffffffffffffffffffff16815260200190815260200160002081905550816000819055508060018190555050506117bc806100d46000396000f3006080604052600436106100ad576000357c0100000000000000000000000000000000000000000000000000000000900463ffffffff16806206503a1461015b5780625c33e1146101865780632cd342d2146101a45780632f1c1ac8146101d157806357d3c7c3146101fc578063590e1ae3146102535780637a9dae961461026a57806383f525ea14610295578063cdf3a667146102c0578063d9978865146102eb578063ff20bffe14610316575b3373ffffffffffffffffffffffffffffffffffffffff166108fc349081150290604051600060405180830381858888f193505050501580156100f3573d6000803e3d6000fd5b503373ffffffffffffffffffffffffffffffffffffffff163073ffffffffffffffffffffffffffffffffffffffff167fddf252ad1be2c89b69c2b068fc378daa952ba7f163c4a11628f55a4df523b3ef346040518082815260200191505060405180910390a3005b34801561016757600080fd5b50610170610345565b6040518082815260200191505060405180910390f35b61018e61036e565b6040518082815260200191505060405180910390f35b3480156101b057600080fd5b506101cf600480360381019080803590602001909291905050506107c4565b005b3480156101dd57600080fd5b506101e6610fc7565b6040518082815260200191505060405180910390f35b34801561020857600080fd5b5061023d600480360381019080803573ffffffffffffffffffffffffffffffffffffffff169060200190929190505050610fd1565b6040518082815260200191505060405180910390f35b34801561025f57600080fd5b50610268610fe9565b005b34801561027657600080fd5b5061027f611635565b6040518082815260200191505060405180910390f35b3480156102a157600080fd5b506102aa61169e565b6040518082815260200191505060405180910390f35b3480156102cc57600080fd5b506102d56116a7565b6040518082815260200191505060405180910390f35b3480156102f757600080fd5b50610300611710565b6040518082815260200191505060405180910390f35b34801561032257600080fd5b5061032b611779565b604051808215151515815260200191505060405180910390f35b6000600154600254420310151561035f576000905061036b565b42600154600254010390505b90565b6000600460149054906101000a900460ff1615151561038c57600080fd5b7f8e47b87b0ef542cdfa1659c551d88bad38aa7f452d2bbb349ab7530dfec8be8f3334604051808373ffffffffffffffffffffffffffffffffffffffff1673ffffffffffffffffffffffffffffffffffffffff1681526020018281526020019250505060405180910390a1600360009054906101000a900473ffffffffffffffffffffffffffffffffffffffff1673ffffffffffffffffffffffffffffffffffffffff163373ffffffffffffffffffffffffffffffffffffffff1614156104c1573460056000600360009054906101000a900473ffffffffffffffffffffffffffffffffffffffff1673ffffffffffffffffffffffffffffffffffffffff1673ffffffffffffffffffffffffffffffffffffffff16815260200190815260200160002060008282540192505081905550610664565b6000600460009054906101000a900473ffffffffffffffffffffffffffffffffffffffff1673ffffffffffffffffffffffffffffffffffffffff1614156105ae5733600460006101000a81548173ffffffffffffffffffffffffffffffffffffffff021916908373ffffffffffffffffffffffffffffffffffffffff1602179055503460056000600460009054906101000a900473ffffffffffffffffffffffffffffffffffffffff1673ffffffffffffffffffffffffffffffffffffffff1673ffffffffffffffffffffffffffffffffffffffff16815260200190815260200160002081905550610663565b3373ffffffffffffffffffffffffffffffffffffffff166108fc349081150290604051600060405180830381858888f193505050501580156105f4573d6000803e3d6000fd5b503373ffffffffffffffffffffffffffffffffffffffff163073ffffffffffffffffffffffffffffffffffffffff167fddf252ad1be2c89b69c2b068fc378daa952ba7f163c4a11628f55a4df523b3ef346040518082815260200191505060405180910390a3600090506107c1565b5b60056000600360009054906101000a900473ffffffffffffffffffffffffffffffffffffffff1673ffffffffffffffffffffffffffffffffffffffff1673ffffffffffffffffffffffffffffffffffffffff1681526020019081526020016000205460056000600460009054906101000a900473ffffffffffffffffffffffffffffffffffffffff1673ffffffffffffffffffffffffffffffffffffffff1673ffffffffffffffffffffffffffffffffffffffff1681526020019081526020016000205410151561077e576001600460146101000a81548160ff021916908315150217905550426002819055507fd17b72adcfcf924f4a1bed3bee8fb150eeaaa86d5160165c0ce6af7c04fa123a60405160405180910390a15b600560003373ffffffffffffffffffffffffffffffffffffffff1673ffffffffffffffffffffffffffffffffffffffff1681526020019081526020016000205490505b90565b600060056000600360009054906101000a900473ffffffffffffffffffffffffffffffffffffffff1673ffffffffffffffffffffffffffffffffffffffff1673ffffffffffffffffffffffffffffffffffffffff1681526020019081526020016000205460056000600460009054906101000a900473ffffffffffffffffffffffffffffffffffffffff1673ffffffffffffffffffffffffffffffffffffffff1673ffffffffffffffffffffffffffffffffffffffff168152602001908152602001600020541015151561089757600080fd5b6001546002544203101515156108ac57600080fd5b7fa91efe1612f13140729674cd0af79a3e1c7a054cf8ca2f75d3e1a7f775a4839060005483604051808381526020018281526020019250505060405180910390a160009050600054600283021115156109ad577fb2d60c1853f534186f98500209005bfe1303c83a5b211d7be5b93d61be1ca99e670de0b6b3a764000060056000600360009054906101000a900473ffffffffffffffffffffffffffffffffffffffff1673ffffffffffffffffffffffffffffffffffffffff1673ffffffffffffffffffffffffffffffffffffffff16815260200190815260200160002054840281151561099657fe5b046040518082815260200191505060405180910390a15b600054821115610cb85781600054830360056000600360009054906101000a900473ffffffffffffffffffffffffffffffffffffffff1673ffffffffffffffffffffffffffffffffffffffff1673ffffffffffffffffffffffffffffffffffffffff1681526020019081526020016000205402811515610a2957fe5b0490508060056000600360009054906101000a900473ffffffffffffffffffffffffffffffffffffffff1673ffffffffffffffffffffffffffffffffffffffff1673ffffffffffffffffffffffffffffffffffffffff168152602001908152602001600020600082825401925050819055508060056000600460009054906101000a900473ffffffffffffffffffffffffffffffffffffffff1673ffffffffffffffffffffffffffffffffffffffff1673ffffffffffffffffffffffffffffffffffffffff16815260200190815260200160002060008282540392505081905550600460009054906101000a900473ffffffffffffffffffffffffffffffffffffffff1673ffffffffffffffffffffffffffffffffffffffff166108fc60056000600460009054906101000a900473ffffffffffffffffffffffffffffffffffffffff1673ffffffffffffffffffffffffffffffffffffffff1673ffffffffffffffffffffffffffffffffffffffff168152602001908152602001600020549081150290604051600060405180830381858888f19350505050158015610bd3573d6000803e3d6000fd5b50600360009054906101000a900473ffffffffffffffffffffffffffffffffffffffff1673ffffffffffffffffffffffffffffffffffffffff16600460009054906101000a900473ffffffffffffffffffffffffffffffffffffffff1673ffffffffffffffffffffffffffffffffffffffff167fddf252ad1be2c89b69c2b068fc378daa952ba7f163c4a11628f55a4df523b3ef836040518082815260200191505060405180910390a3600360009054906101000a900473ffffffffffffffffffffffffffffffffffffffff1673ffffffffffffffffffffffffffffffffffffffff16ff5b600054821015610fc35781826000540360056000600360009054906101000a900473ffffffffffffffffffffffffffffffffffffffff1673ffffffffffffffffffffffffffffffffffffffff1673ffffffffffffffffffffffffffffffffffffffff1681526020019081526020016000205402811515610d3457fe5b0490508060056000600360009054906101000a900473ffffffffffffffffffffffffffffffffffffffff1673ffffffffffffffffffffffffffffffffffffffff1673ffffffffffffffffffffffffffffffffffffffff168152602001908152602001600020600082825403925050819055508060056000600460009054906101000a900473ffffffffffffffffffffffffffffffffffffffff1673ffffffffffffffffffffffffffffffffffffffff1673ffffffffffffffffffffffffffffffffffffffff16815260200190815260200160002060008282540192505081905550600460009054906101000a900473ffffffffffffffffffffffffffffffffffffffff1673ffffffffffffffffffffffffffffffffffffffff166108fc60056000600460009054906101000a900473ffffffffffffffffffffffffffffffffffffffff1673ffffffffffffffffffffffffffffffffffffffff1673ffffffffffffffffffffffffffffffffffffffff168152602001908152602001600020549081150290604051600060405180830381858888f19350505050158015610ede573d6000803e3d6000fd5b50600460009054906101000a900473ffffffffffffffffffffffffffffffffffffffff1673ffffffffffffffffffffffffffffffffffffffff16600360009054906101000a900473ffffffffffffffffffffffffffffffffffffffff1673ffffffffffffffffffffffffffffffffffffffff167fddf252ad1be2c89b69c2b068fc378daa952ba7f163c4a11628f55a4df523b3ef836040518082815260200191505060405180910390a3600360009054906101000a900473ffffffffffffffffffffffffffffffffffffffff1673ffffffffffffffffffffffffffffffffffffffff16ff5b5050565b6000600154905090565b60056020528060005260406000206000915090505481565b600360009054906101000a900473ffffffffffffffffffffffffffffffffffffffff1673ffffffffffffffffffffffffffffffffffffffff163373ffffffffffffffffffffffffffffffffffffffff1614151561104557600080fd5b600460149054906101000a900460ff16158061106d5750600460159054906101000a900460ff165b151561107857600080fd5b600060056000600460009054906101000a900473ffffffffffffffffffffffffffffffffffffffff1673ffffffffffffffffffffffffffffffffffffffff1673ffffffffffffffffffffffffffffffffffffffff16815260200190815260200160002054141561144657600460009054906101000a900473ffffffffffffffffffffffffffffffffffffffff1673ffffffffffffffffffffffffffffffffffffffff166108fc60056000600460009054906101000a900473ffffffffffffffffffffffffffffffffffffffff1673ffffffffffffffffffffffffffffffffffffffff1673ffffffffffffffffffffffffffffffffffffffff168152602001908152602001600020549081150290604051600060405180830381858888f193505050501580156111ab573d6000803e3d6000fd5b50600460009054906101000a900473ffffffffffffffffffffffffffffffffffffffff1673ffffffffffffffffffffffffffffffffffffffff163073ffffffffffffffffffffffffffffffffffffffff167fddf252ad1be2c89b69c2b068fc378daa952ba7f163c4a11628f55a4df523b3ef60056000600460009054906101000a900473ffffffffffffffffffffffffffffffffffffffff1673ffffffffffffffffffffffffffffffffffffffff1673ffffffffffffffffffffffffffffffffffffffff168152602001908152602001600020546040518082815260200191505060405180910390a37f3265d88026dac335490595911069fe23a2d1bf4c8c13062887bf83d88d4b5707600360009054906101000a900473ffffffffffffffffffffffffffffffffffffffff1660056000600360009054906101000a900473ffffffffffffffffffffffffffffffffffffffff1673ffffffffffffffffffffffffffffffffffffffff1673ffffffffffffffffffffffffffffffffffffffff16815260200190815260200160002054600460009054906101000a900473ffffffffffffffffffffffffffffffffffffffff1660056000600460009054906101000a900473ffffffffffffffffffffffffffffffffffffffff1673ffffffffffffffffffffffffffffffffffffffff1673ffffffffffffffffffffffffffffffffffffffff16815260200190815260200160002054604051808573ffffffffffffffffffffffffffffffffffffffff1673ffffffffffffffffffffffffffffffffffffffff1681526020018481526020018373ffffffffffffffffffffffffffffffffffffffff1673ffffffffffffffffffffffffffffffffffffffff16815260200182815260200194505050505060405180910390a161155c565b7f3265d88026dac335490595911069fe23a2d1bf4c8c13062887bf83d88d4b5707600360009054906101000a900473ffffffffffffffffffffffffffffffffffffffff1660056000600360009054906101000a900473ffffffffffffffffffffffffffffffffffffffff1673ffffffffffffffffffffffffffffffffffffffff1673ffffffffffffffffffffffffffffffffffffffff16815260200190815260200160002054600080604051808573ffffffffffffffffffffffffffffffffffffffff1673ffffffffffffffffffffffffffffffffffffffff1681526020018481526020018373ffffffffffffffffffffffffffffffffffffffff16815260200182815260200194505050505060405180910390a15b600360009054906101000a900473ffffffffffffffffffffffffffffffffffffffff1673ffffffffffffffffffffffffffffffffffffffff163073ffffffffffffffffffffffffffffffffffffffff167fddf252ad1be2c89b69c2b068fc378daa952ba7f163c4a11628f55a4df523b3ef3073ffffffffffffffffffffffffffffffffffffffff16316040518082815260200191505060405180910390a3600360009054906101000a900473ffffffffffffffffffffffffffffffffffffffff1673ffffffffffffffffffffffffffffffffffffffff16ff5b600060056000600360009054906101000a900473ffffffffffffffffffffffffffffffffffffffff1673ffffffffffffffffffffffffffffffffffffffff1673ffffffffffffffffffffffffffffffffffffffff16815260200190815260200160002054905090565b60008054905090565b600060056000600460009054906101000a900473ffffffffffffffffffffffffffffffffffffffff1673ffffffffffffffffffffffffffffffffffffffff1673ffffffffffffffffffffffffffffffffffffffff16815260200190815260200160002054905090565b600060056000600460009054906101000a900473ffffffffffffffffffffffffffffffffffffffff1673ffffffffffffffffffffffffffffffffffffffff1673ffffffffffffffffffffffffffffffffffffffff16815260200190815260200160002054905090565b6000600460149054906101000a900460ff169050905600a165627a7a723058208d94443f1a097167c16e643343cef0f9ee3a3684725e2c0354d48ce1c09634680029",
  "source": "pragma solidity ^0.4.23;\n\n\ncontract FutureETH {\n    uint256 constant WEI = 1000000000000000000;\n    uint256 futurePrice;\n    uint256 futureSeconds;\n    uint256 startTime;\n    address owner;\n    address buyer;\n    bool futureStarted;\n    bool futureCompleted;\n\n    mapping (address => uint) public escrow;\n\n    event FundsReceived(address sender, uint256 _value); // funds received from the second person\n    event Transfer(address indexed _from, address indexed _to, uint256 _value);\n    event FutureStartedEvent(); // when the futuresContract is started\n    event FutureCompletedEvent(uint256 expectedPrice, uint256 actualPrice); // when the futures contract is completed\n    event Liquidation(uint256 valueLost); // uh oh.\n    event RefundEth(address owner, uint ownerAmount, address buyer, uint buyerAmount); // canceled futures contract\n\n    modifier refundable {\n        require(!futureStarted || futureCompleted);\n        _;\n    }\n\n    modifier fundingCompleted {\n        require(escrow[buyer] >= escrow[owner]);\n        _;\n    }\n\n    modifier onlyOwner {\n        require(msg.sender == owner);\n        _;\n    }\n\n    modifier enoughTimePassed {\n        require(now-startTime >= futureSeconds);\n        _;\n    }\n\n    constructor(uint256 futurePriceToSet, uint256 secondsToWait) public payable {\n        owner = msg.sender;\n        escrow[msg.sender] = msg.value;\n        futurePrice = futurePriceToSet;\n        futureSeconds = secondsToWait;\n    }\n\n    // fallback function\n    function() public payable {\n        msg.sender.transfer(msg.value);\n        emit Transfer(this, msg.sender, msg.value);\n    }\n\n    function receiveFunds() public payable returns (uint newBalance) {\n        require(!futureStarted);\n        emit FundsReceived(msg.sender, msg.value);\n        if (msg.sender == owner) {\n            escrow[owner] += msg.value;\n        } else if (buyer == 0) {\n            buyer = msg.sender;\n            escrow[buyer] = msg.value;\n        } else {\n            // refund the person who sent the ether and is not a participant.\n            msg.sender.transfer(msg.value);\n            emit Transfer(this, msg.sender, msg.value);\n            return 0;\n        }\n\n        if (escrow[buyer] >= escrow[owner]) {\n            futureStarted = true;\n            startTime = now;\n            emit FutureStartedEvent();\n        }\n\n        return escrow[msg.sender];\n    }\n\n    function processFuture(uint actualPrice) public fundingCompleted enoughTimePassed {\n        emit FutureCompletedEvent(futurePrice, actualPrice);\n        // Msg.value(newPrice-price) / newPrice = quantityOwed\n        uint amountToSend = 0;\n\n        // R - E - K - T\n        if ((actualPrice*2) <= futurePrice) {\n            emit Liquidation(actualPrice*escrow[owner] / 1000000000000000000);\n        }\n\n        if (actualPrice > futurePrice) {\n            // price went higher than predicted, buyer makes the difference\n            amountToSend = (escrow[owner] * (actualPrice-futurePrice)) / actualPrice;\n            escrow[owner] += amountToSend;\n            escrow[buyer] -= amountToSend;\n            buyer.transfer(escrow[buyer]);\n            emit Transfer(buyer, owner, amountToSend);\n            selfdestruct(owner);\n        }\n        if (actualPrice < futurePrice) {\n            // price went lower than predicted, seller makes the difference\n            // solidity can't handle negatives so we reverse the foruma's subtraction\n            amountToSend = (escrow[owner] * (futurePrice-actualPrice)) / actualPrice;\n            escrow[owner] -= amountToSend;\n            escrow[buyer] += amountToSend;\n            buyer.transfer(escrow[buyer]);\n            emit Transfer(owner, buyer, amountToSend);\n            selfdestruct(owner);\n        }\n    }\n\n    function refund() public onlyOwner refundable {\n        if (escrow[buyer] == 0) {\n            buyer.transfer(escrow[buyer]);\n            emit Transfer(this, buyer, escrow[buyer]);\n            emit RefundEth(owner, escrow[owner], buyer, escrow[buyer]);\n        } else {\n            emit RefundEth(owner, escrow[owner], 0x0, 0);\n        }\n\n        emit Transfer(this, owner, address(this).balance);\n        selfdestruct(owner);\n    }\n\n    function getSecondsLeft() public view returns (uint) {\n        if (now-startTime >= futureSeconds) {\n            return 0;\n        } else {\n            return startTime+(futureSeconds)-now;\n        }\n    }\n\n    function getSellerBalance() public view returns(uint) {\n        return escrow[owner];\n    }\n\n    function getBuyerBalance() public view returns (uint) {\n        return escrow[buyer];\n    }\n\n    function getFutureAmount() public view returns (uint) {\n        return escrow[buyer];\n    }\n\n    function getFuturesPrice() public view returns (uint) {\n        return futurePrice;\n    }\n\n    function getFuturesSeconds() public view returns (uint) {\n        return futureSeconds;\n    }\n\n    function getFutureStarted() public view returns (bool) {\n        return futureStarted;\n    }\n}\n",
  "sourcePath": "/Users/brent/Documents/eth-programming/helloWorld/contracts/FutureETH.sol",
  "compiler": {
    "name": "solc",
    "version": "0.4.23+commit.124ca40d.Emscripten.clang"
  },
  "schemaVersion": "2.0.0",
  "updatedAt": "2018-04-29T04:38:17.568Z"
}